{
  "_format": "hh-sol-artifact-1",
  "contractName": "WNFT",
  "sourceName": "contracts/WNFT.sol",
  "abi": [
    {
      "inputs": [
        {
          "internalType": "string",
          "name": "name",
          "type": "string"
        },
        {
          "internalType": "string",
          "name": "symbol",
          "type": "string"
        },
        {
          "internalType": "contract IMinting",
          "name": "newMintingContract",
          "type": "address"
        },
        {
          "internalType": "contract Resolver",
          "name": "newEnsResolver",
          "type": "address"
        },
        {
          "internalType": "contract ENS",
          "name": "ens",
          "type": "address"
        },
        {
          "internalType": "bytes32",
          "name": "newEnsNode",
          "type": "bytes32"
        },
        {
          "internalType": "contract AggregatorV3Interface",
          "name": "newPriceFeed",
          "type": "address"
        }
      ],
      "stateMutability": "nonpayable",
      "type": "constructor"
    },
    {
      "anonymous": false,
      "inputs": [
        {
          "indexed": true,
          "internalType": "address",
          "name": "owner",
          "type": "address"
        },
        {
          "indexed": true,
          "internalType": "address",
          "name": "approved",
          "type": "address"
        },
        {
          "indexed": true,
          "internalType": "uint256",
          "name": "tokenId",
          "type": "uint256"
        }
      ],
      "name": "Approval",
      "type": "event"
    },
    {
      "anonymous": false,
      "inputs": [
        {
          "indexed": true,
          "internalType": "address",
          "name": "owner",
          "type": "address"
        },
        {
          "indexed": true,
          "internalType": "address",
          "name": "operator",
          "type": "address"
        },
        {
          "indexed": false,
          "internalType": "bool",
          "name": "approved",
          "type": "bool"
        }
      ],
      "name": "ApprovalForAll",
      "type": "event"
    },
    {
      "anonymous": false,
      "inputs": [
        {
          "indexed": false,
          "internalType": "string",
          "name": "field",
          "type": "string"
        }
      ],
      "name": "CollectionOnchainMetadataFieldAdded",
      "type": "event"
    },
    {
      "anonymous": false,
      "inputs": [
        {
          "indexed": false,
          "internalType": "address",
          "name": "newContract",
          "type": "address"
        }
      ],
      "name": "ContractSwitch",
      "type": "event"
    },
    {
      "anonymous": false,
      "inputs": [
        {
          "indexed": true,
          "internalType": "address",
          "name": "previousOwner",
          "type": "address"
        },
        {
          "indexed": true,
          "internalType": "address",
          "name": "newOwner",
          "type": "address"
        }
      ],
      "name": "OwnershipTransferred",
      "type": "event"
    },
    {
      "anonymous": false,
      "inputs": [
        {
          "indexed": false,
          "internalType": "string",
          "name": "field",
          "type": "string"
        },
        {
          "components": [
            {
              "internalType": "address",
              "name": "SCaddress",
              "type": "address"
            },
            {
              "internalType": "bytes4",
              "name": "SCinterface",
              "type": "bytes4"
            }
          ],
          "indexed": false,
          "internalType": "struct WNFT.SC",
          "name": "fieldSc",
          "type": "tuple"
        }
      ],
      "name": "TokenOnchainMetadataFieldAdded",
      "type": "event"
    },
    {
      "anonymous": false,
      "inputs": [
        {
          "indexed": true,
          "internalType": "address",
          "name": "from",
          "type": "address"
        },
        {
          "indexed": true,
          "internalType": "address",
          "name": "to",
          "type": "address"
        },
        {
          "indexed": true,
          "internalType": "uint256",
          "name": "tokenId",
          "type": "uint256"
        }
      ],
      "name": "Transfer",
      "type": "event"
    },
    {
      "inputs": [],
      "name": "ENSNode",
      "outputs": [
        {
          "internalType": "bytes32",
          "name": "",
          "type": "bytes32"
        }
      ],
      "stateMutability": "view",
      "type": "function"
    },
    {
      "inputs": [],
      "name": "ENSResolver",
      "outputs": [
        {
          "internalType": "contract Resolver",
          "name": "",
          "type": "address"
        }
      ],
      "stateMutability": "view",
      "type": "function"
    },
    {
      "inputs": [
        {
          "internalType": "uint256",
          "name": "i",
          "type": "uint256"
        }
      ],
      "name": "NthToken",
      "outputs": [
        {
          "internalType": "uint256",
          "name": "",
          "type": "uint256"
        }
      ],
      "stateMutability": "view",
      "type": "function"
    },
    {
      "inputs": [],
      "name": "_wnftPriceInUSDPOW8",
      "outputs": [
        {
          "internalType": "int256",
          "name": "",
          "type": "int256"
        }
      ],
      "stateMutability": "view",
      "type": "function"
    },
    {
      "inputs": [
        {
          "internalType": "string",
          "name": "fieldName",
          "type": "string"
        }
      ],
      "name": "addCollectionOnchainMetadataField",
      "outputs": [],
      "stateMutability": "nonpayable",
      "type": "function"
    },
    {
      "inputs": [
        {
          "internalType": "bytes4",
          "name": "SCinterface",
          "type": "bytes4"
        },
        {
          "internalType": "address",
          "name": "SCaddress",
          "type": "address"
        },
        {
          "internalType": "string",
          "name": "fieldName",
          "type": "string"
        }
      ],
      "name": "addTokenOnchainMetadataField",
      "outputs": [],
      "stateMutability": "nonpayable",
      "type": "function"
    },
    {
      "inputs": [],
      "name": "amount",
      "outputs": [
        {
          "internalType": "uint256",
          "name": "",
          "type": "uint256"
        }
      ],
      "stateMutability": "view",
      "type": "function"
    },
    {
      "inputs": [
        {
          "internalType": "address",
          "name": "to",
          "type": "address"
        },
        {
          "internalType": "uint256",
          "name": "tokenId",
          "type": "uint256"
        }
      ],
      "name": "approve",
      "outputs": [],
      "stateMutability": "nonpayable",
      "type": "function"
    },
    {
      "inputs": [
        {
          "internalType": "address",
          "name": "owner",
          "type": "address"
        }
      ],
      "name": "balanceOf",
      "outputs": [
        {
          "internalType": "uint256",
          "name": "",
          "type": "uint256"
        }
      ],
      "stateMutability": "view",
      "type": "function"
    },
    {
      "inputs": [
        {
          "internalType": "address",
          "name": "to",
          "type": "address"
        },
        {
          "internalType": "uint256",
          "name": "tokenId",
          "type": "uint256"
        }
      ],
      "name": "canMint",
      "outputs": [
        {
          "internalType": "bool",
          "name": "",
          "type": "bool"
        }
      ],
      "stateMutability": "view",
      "type": "function"
    },
    {
      "inputs": [
        {
          "internalType": "string",
          "name": "fieldName",
          "type": "string"
        }
      ],
      "name": "collectionOnchainMetadata",
      "outputs": [
        {
          "internalType": "string",
          "name": "",
          "type": "string"
        }
      ],
      "stateMutability": "view",
      "type": "function"
    },
    {
      "inputs": [],
      "name": "contractSwitched",
      "outputs": [
        {
          "internalType": "address",
          "name": "",
          "type": "address"
        }
      ],
      "stateMutability": "view",
      "type": "function"
    },
    {
      "inputs": [
        {
          "internalType": "uint256",
          "name": "tokenId",
          "type": "uint256"
        }
      ],
      "name": "getApproved",
      "outputs": [
        {
          "internalType": "address",
          "name": "",
          "type": "address"
        }
      ],
      "stateMutability": "view",
      "type": "function"
    },
    {
      "inputs": [],
      "name": "getLatestPrice",
      "outputs": [
        {
          "internalType": "int256",
          "name": "",
          "type": "int256"
        }
      ],
      "stateMutability": "view",
      "type": "function"
    },
    {
      "inputs": [
        {
          "internalType": "address",
          "name": "owner",
          "type": "address"
        },
        {
          "internalType": "address",
          "name": "operator",
          "type": "address"
        }
      ],
      "name": "isApprovedForAll",
      "outputs": [
        {
          "internalType": "bool",
          "name": "",
          "type": "bool"
        }
      ],
      "stateMutability": "view",
      "type": "function"
    },
    {
      "inputs": [
        {
          "internalType": "address",
          "name": "to",
          "type": "address"
        },
        {
          "internalType": "uint256",
          "name": "tokenId",
          "type": "uint256"
        }
      ],
      "name": "mint",
      "outputs": [],
      "stateMutability": "payable",
      "type": "function"
    },
    {
      "inputs": [
        {
          "internalType": "address",
          "name": "to",
          "type": "address"
        },
        {
          "internalType": "uint256",
          "name": "tokenId",
          "type": "uint256"
        },
        {
          "internalType": "string",
          "name": "uri",
          "type": "string"
        }
      ],
      "name": "mintWithTokenURI",
      "outputs": [],
      "stateMutability": "payable",
      "type": "function"
    },
    {
      "inputs": [],
      "name": "mintingContract",
      "outputs": [
        {
          "internalType": "contract IMinting",
          "name": "",
          "type": "address"
        }
      ],
      "stateMutability": "view",
      "type": "function"
    },
    {
      "inputs": [],
      "name": "name",
      "outputs": [
        {
          "internalType": "string",
          "name": "",
          "type": "string"
        }
      ],
      "stateMutability": "view",
      "type": "function"
    },
    {
      "inputs": [],
      "name": "owner",
      "outputs": [
        {
          "internalType": "address",
          "name": "",
          "type": "address"
        }
      ],
      "stateMutability": "view",
      "type": "function"
    },
    {
      "inputs": [
        {
          "internalType": "uint256",
          "name": "tokenId",
          "type": "uint256"
        }
      ],
      "name": "ownerOf",
      "outputs": [
        {
          "internalType": "address",
          "name": "",
          "type": "address"
        }
      ],
      "stateMutability": "view",
      "type": "function"
    },
    {
      "inputs": [],
      "name": "renounceOwnership",
      "outputs": [],
      "stateMutability": "nonpayable",
      "type": "function"
    },
    {
      "inputs": [
        {
          "internalType": "address",
          "name": "from",
          "type": "address"
        },
        {
          "internalType": "address",
          "name": "to",
          "type": "address"
        },
        {
          "internalType": "uint256",
          "name": "tokenId",
          "type": "uint256"
        }
      ],
      "name": "safeTransferFrom",
      "outputs": [],
      "stateMutability": "nonpayable",
      "type": "function"
    },
    {
      "inputs": [
        {
          "internalType": "address",
          "name": "from",
          "type": "address"
        },
        {
          "internalType": "address",
          "name": "to",
          "type": "address"
        },
        {
          "internalType": "uint256",
          "name": "tokenId",
          "type": "uint256"
        },
        {
          "internalType": "bytes",
          "name": "_data",
          "type": "bytes"
        }
      ],
      "name": "safeTransferFrom",
      "outputs": [],
      "stateMutability": "nonpayable",
      "type": "function"
    },
    {
      "inputs": [
        {
          "internalType": "address",
          "name": "operator",
          "type": "address"
        },
        {
          "internalType": "bool",
          "name": "approved",
          "type": "bool"
        }
      ],
      "name": "setApprovalForAll",
      "outputs": [],
      "stateMutability": "nonpayable",
      "type": "function"
    },
    {
      "inputs": [
        {
          "internalType": "string",
          "name": "fieldName",
          "type": "string"
        },
        {
          "internalType": "string",
          "name": "fieldValue",
          "type": "string"
        }
      ],
      "name": "setCollectionOnchainMetadata",
      "outputs": [],
      "stateMutability": "nonpayable",
      "type": "function"
    },
    {
      "inputs": [
        {
          "internalType": "address",
          "name": "newContract",
          "type": "address"
        }
      ],
      "name": "setContractSwitched",
      "outputs": [],
      "stateMutability": "nonpayable",
      "type": "function"
    },
    {
      "inputs": [
        {
          "internalType": "bytes",
          "name": "hash",
          "type": "bytes"
        }
      ],
      "name": "setENSContenthash",
      "outputs": [],
      "stateMutability": "nonpayable",
      "type": "function"
    },
    {
      "inputs": [
        {
          "internalType": "bytes32",
          "name": "ensNode",
          "type": "bytes32"
        }
      ],
      "name": "setENSNode",
      "outputs": [],
      "stateMutability": "nonpayable",
      "type": "function"
    },
    {
      "inputs": [
        {
          "internalType": "contract Resolver",
          "name": "ensResolver",
          "type": "address"
        }
      ],
      "name": "setENSResolver",
      "outputs": [],
      "stateMutability": "nonpayable",
      "type": "function"
    },
    {
      "inputs": [
        {
          "internalType": "contract IMinting",
          "name": "newContract",
          "type": "address"
        }
      ],
      "name": "setMintingContract",
      "outputs": [],
      "stateMutability": "nonpayable",
      "type": "function"
    },
    {
      "inputs": [
        {
          "internalType": "uint256",
          "name": "tokenId",
          "type": "uint256"
        },
        {
          "internalType": "string",
          "name": "field",
          "type": "string"
        },
        {
          "internalType": "string",
          "name": "value",
          "type": "string"
        }
      ],
      "name": "setTokenOnchainMetadataString",
      "outputs": [],
      "stateMutability": "nonpayable",
      "type": "function"
    },
    {
      "inputs": [
        {
          "internalType": "uint256",
          "name": "tokenId",
          "type": "uint256"
        },
        {
          "internalType": "string",
          "name": "field",
          "type": "string"
        },
        {
          "internalType": "uint256",
          "name": "value",
          "type": "uint256"
        }
      ],
      "name": "setTokenOnchainMetadataUint",
      "outputs": [],
      "stateMutability": "nonpayable",
      "type": "function"
    },
    {
      "inputs": [
        {
          "internalType": "int256",
          "name": "tokenPrice",
          "type": "int256"
        }
      ],
      "name": "setTokenPrice",
      "outputs": [],
      "stateMutability": "nonpayable",
      "type": "function"
    },
    {
      "inputs": [
        {
          "internalType": "uint256",
          "name": "tokenId",
          "type": "uint256"
        },
        {
          "internalType": "string",
          "name": "uri",
          "type": "string"
        }
      ],
      "name": "setTokenURI",
      "outputs": [],
      "stateMutability": "nonpayable",
      "type": "function"
    },
    {
      "inputs": [
        {
          "internalType": "string",
          "name": "uri",
          "type": "string"
        }
      ],
      "name": "setWnftUri",
      "outputs": [],
      "stateMutability": "nonpayable",
      "type": "function"
    },
    {
      "inputs": [
        {
          "internalType": "bytes4",
          "name": "interfaceId",
          "type": "bytes4"
        }
      ],
      "name": "supportsInterface",
      "outputs": [
        {
          "internalType": "bool",
          "name": "",
          "type": "bool"
        }
      ],
      "stateMutability": "view",
      "type": "function"
    },
    {
      "inputs": [],
      "name": "symbol",
      "outputs": [
        {
          "internalType": "string",
          "name": "",
          "type": "string"
        }
      ],
      "stateMutability": "view",
      "type": "function"
    },
    {
      "inputs": [
        {
          "internalType": "uint256",
          "name": "tokenId",
          "type": "uint256"
        },
        {
          "internalType": "string",
          "name": "field",
          "type": "string"
        }
      ],
      "name": "tokenOnchainMetadataString",
      "outputs": [
        {
          "internalType": "string",
          "name": "",
          "type": "string"
        }
      ],
      "stateMutability": "view",
      "type": "function"
    },
    {
      "inputs": [
        {
          "internalType": "uint256",
          "name": "tokenId",
          "type": "uint256"
        },
        {
          "internalType": "string",
          "name": "field",
          "type": "string"
        }
      ],
      "name": "tokenOnchainMetadataUint",
      "outputs": [
        {
          "internalType": "uint256",
          "name": "",
          "type": "uint256"
        }
      ],
      "stateMutability": "view",
      "type": "function"
    },
    {
      "inputs": [
        {
          "internalType": "uint256",
          "name": "tokenId",
          "type": "uint256"
        }
      ],
      "name": "tokenURI",
      "outputs": [
        {
          "internalType": "string",
          "name": "",
          "type": "string"
        }
      ],
      "stateMutability": "view",
      "type": "function"
    },
    {
      "inputs": [
        {
          "internalType": "address",
          "name": "newOwner",
          "type": "address"
        }
      ],
      "name": "transferENSName",
      "outputs": [],
      "stateMutability": "nonpayable",
      "type": "function"
    },
    {
      "inputs": [
        {
          "internalType": "address",
          "name": "from",
          "type": "address"
        },
        {
          "internalType": "address",
          "name": "to",
          "type": "address"
        },
        {
          "internalType": "uint256",
          "name": "tokenId",
          "type": "uint256"
        }
      ],
      "name": "transferFrom",
      "outputs": [],
      "stateMutability": "nonpayable",
      "type": "function"
    },
    {
      "inputs": [
        {
          "internalType": "address",
          "name": "newOwner",
          "type": "address"
        }
      ],
      "name": "transferOwnership",
      "outputs": [],
      "stateMutability": "nonpayable",
      "type": "function"
    },
    {
      "inputs": [],
      "name": "wnftUri",
      "outputs": [
        {
          "internalType": "string",
          "name": "",
          "type": "string"
        }
      ],
      "stateMutability": "view",
      "type": "function"
    }
  ],
  "bytecode": "0x608060405264012a05f200600b553480156200001a57600080fd5b5060405162003b6238038062003b628339810160408190526200003d91620002eb565b8686620000536200004d62000146565b6200014a565b8151620000689060019060208501906200019a565b5080516200007e9060029060208401906200019a565b5050600f80546001600160a01b039788166001600160a01b0319918216179091556008805496881696821696909617909555506009805493861693851693909317909255601455600a8054919093169116179055505060136020527f9e798ae1711164119def6d3c0c5bba329583af22f568dddc31d0cc72218609be805460ff199081166001908117909255632421c19b60e01b6000527f6996edb23a50f4146b0e085cf1a557b06f76290de3fab3f832d082e0a972b228805490911690911790556200041f565b3390565b600080546001600160a01b038381166001600160a01b0319831681178455604051919092169283917f8be0079c531659141344cd1fd0a4f28419497f9722a3daafe3b4186f6b6457e09190a35050565b828054620001a890620003b3565b90600052602060002090601f016020900481019282620001cc576000855562000217565b82601f10620001e757805160ff191683800117855562000217565b8280016001018555821562000217579182015b8281111562000217578251825591602001919060010190620001fa565b506200022592915062000229565b5090565b5b808211156200022557600081556001016200022a565b600082601f83011262000251578081fd5b81516001600160401b03808211156200026e576200026e620003f0565b6040516020601f8401601f1916820181018381118382101715620002965762000296620003f0565b6040528382528584018101871015620002ad578485fd5b8492505b83831015620002d05785830181015182840182015291820191620002b1565b83831115620002e157848185840101525b5095945050505050565b600080600080600080600060e0888a03121562000306578283fd5b87516001600160401b03808211156200031d578485fd5b6200032b8b838c0162000240565b985060208a015191508082111562000341578485fd5b50620003508a828b0162000240565b9650506040880151620003638162000406565b6060890151909550620003768162000406565b6080890151909450620003898162000406565b60a089015160c08a01519194509250620003a38162000406565b8091505092959891949750929550565b600281046001821680620003c857607f821691505b60208210811415620003ea57634e487b7160e01b600052602260045260246000fd5b50919050565b634e487b7160e01b600052604160045260246000fd5b6001600160a01b03811681146200041c57600080fd5b50565b613733806200042f6000396000f3fe6080604052600436106102025760003560e01c806301ffc9a71461020757806302f4cb011461023d57806305466a3a1461025f57806306fdde031461027f578063081812fc146102a1578063095ea7b3146102ce5780630d5e34a4146102ee578063104433341461030e578063162094c41461032e57806322feb99d1461034e57806323b872dd1461036357806333e12992146103835780633adf2afd146103a35780633cc215d0146103c357806340c10f19146103d857806342842e0e146103eb578063436c61341461040b5780634a26f14a1461042b57806350bb4e7f1461044d578063517f2fff1461046057806351b02e651461048057806353c3ee1d146104a05780636352211e146104c057806367109485146104e057806370a0823114610500578063715018a61461052057806377a3455d146105355780638da5cb5b146105555780638e15f4731461056a57806395d89b411461057f578063a22cb46514610594578063aa8c217c146105b4578063b7d0039a146105c9578063b83a4916146105e9578063b88d4fde14610609578063c56e137514610629578063c87b56dd14610649578063c8bb012f14610669578063ccf6c7a61461067e578063d2f6f67d1461069e578063d5413d4e146106b3578063d6aecd9b146106d3578063e8143500146106f3578063e985e9c514610708578063f2fde38b14610728575b600080fd5b34801561021357600080fd5b50610227610222366004612871565b610748565b6040516102349190612d09565b60405180910390f35b34801561024957600080fd5b5061025d610258366004612947565b610790565b005b34801561026b57600080fd5b5061025d61027a366004612908565b61088a565b34801561028b57600080fd5b5061029461092c565b6040516102349190612d63565b3480156102ad57600080fd5b506102c16102bc366004612859565b6109be565b6040516102349190612ca9565b3480156102da57600080fd5b5061025d6102e93660046127b9565b610a01565b3480156102fa57600080fd5b506102276103093660046127b9565b610a99565b34801561031a57600080fd5b5061025d61032936600461267c565b610b41565b34801561033a57600080fd5b5061025d610349366004612a56565b610ba2565b34801561035a57600080fd5b50610294610c11565b34801561036f57600080fd5b5061025d61037e3660046126d0565b610c20565b34801561038f57600080fd5b5061029461039e366004612b65565b610c58565b3480156103af57600080fd5b5061025d6103be3660046128a9565b610d65565b3480156103cf57600080fd5b506102c1610f4b565b61025d6103e63660046127b9565b610f5a565b3480156103f757600080fd5b5061025d6104063660046126d0565b611031565b34801561041757600080fd5b5061025d6104263660046129a3565b61104c565b34801561043757600080fd5b506104406110f6565b6040516102349190612d14565b61025d61045b3660046127e4565b6110fc565b34801561046c57600080fd5b5061025d61047b366004612a9f565b61120d565b34801561048c57600080fd5b5061025d61049b36600461267c565b611354565b3480156104ac57600080fd5b5061025d6104bb366004612908565b6113de565b3480156104cc57600080fd5b506102c16104db366004612859565b611429565b3480156104ec57600080fd5b506104406104fb366004612859565b61145e565b34801561050c57600080fd5b5061044061051b36600461267c565b6114b4565b34801561052c57600080fd5b5061025d6114f8565b34801561054157600080fd5b5061025d610550366004612859565b611543565b34801561056157600080fd5b506102c1611596565b34801561057657600080fd5b506104406115a5565b34801561058b57600080fd5b50610294611643565b3480156105a057600080fd5b5061025d6105af36600461278c565b611652565b3480156105c057600080fd5b50610440611668565b3480156105d557600080fd5b5061025d6105e436600461267c565b61166e565b3480156105f557600080fd5b5061025d610604366004612b15565b61170e565b34801561061557600080fd5b5061025d610624366004612710565b611852565b34801561063557600080fd5b5061025d61064436600461267c565b61188b565b34801561065557600080fd5b50610294610664366004612859565b6118ec565b34801561067557600080fd5b50610440611a0d565b34801561068a57600080fd5b50610440610699366004612b65565b611a13565b3480156106aa57600080fd5b506102c1611b22565b3480156106bf57600080fd5b506102946106ce3660046129a3565b611b31565b3480156106df57600080fd5b5061025d6106ee366004612859565b611c29565b3480156106ff57600080fd5b506102c1611c6d565b34801561071457600080fd5b50610227610723366004612698565b611c7c565b34801561073457600080fd5b5061025d61074336600461267c565b611caa565b60006001600160e01b031982166380ac58cd60e01b148061077957506001600160e01b03198216635b5e139f60e01b145b80610788575061078882611d1b565b90505b919050565b83838080601f01602080910402602001604051908101604052809392919081815260200183838082843760009201919091525050604051601192506107d791508390612c5e565b9081526040519081900360200190205460ff161515600114156108155760405162461bcd60e51b815260040161080c9061345e565b60405180910390fd5b61081d611d34565b6001600160a01b031661082e611596565b6001600160a01b0316146108545760405162461bcd60e51b815260040161080c906132cf565b828260108787604051610868929190612c4e565b9081526040519081900360200190206108829290916124b5565b505050505050565b610892611d34565b6001600160a01b03166108a3611596565b6001600160a01b0316146108c95760405162461bcd60e51b815260040161080c906132cf565b600854601454604051631827356f60e11b81526001600160a01b039092169163304e6ade916108fe9186908690600401612d34565b600060405180830381600087803b15801561091857600080fd5b505af1158015610882573d6000803e3d6000fd5b60606001805461093b906135fe565b80601f0160208091040260200160405190810160405280929190818152602001828054610967906135fe565b80156109b45780601f10610989576101008083540402835291602001916109b4565b820191906000526020600020905b81548152906001019060200180831161099757829003601f168201915b5050505050905090565b60006109c982611d38565b6109e55760405162461bcd60e51b815260040161080c90613283565b506000908152600560205260409020546001600160a01b031690565b6000610a0c82611429565b9050806001600160a01b0316836001600160a01b03161415610a405760405162461bcd60e51b815260040161080c9061339c565b806001600160a01b0316610a52611d34565b6001600160a01b03161480610a6e5750610a6e81610723611d34565b610a8a5760405162461bcd60e51b815260040161080c906130c4565b610a948383611d55565b505050565b6000610aa482611d38565b151560011415610ab657506000610b3b565b600f546040516303578d2960e21b81526001600160a01b0390911690630d5e34a490610ae89086908690600401612cf0565b60206040518083038186803b158015610b0057600080fd5b505afa158015610b14573d6000803e3d6000fd5b505050506040513d601f19601f82011682018060405250810190610b38919061283d565b90505b92915050565b610b49611d34565b6001600160a01b0316610b5a611596565b6001600160a01b031614610b805760405162461bcd60e51b815260040161080c906132cf565b600880546001600160a01b0319166001600160a01b0392909216919091179055565b8233610bae8183611dc3565b610bca5760405162461bcd60e51b815260040161080c906133dd565b610c0a8585858080601f016020809104026020016040519081016040528093929190818152602001838380828437600092019190915250611e4092505050565b5050505050565b60606015805461093b906135fe565b610c31610c2b611d34565b82611dc3565b610c4d5760405162461bcd60e51b815260040161080c9061340d565b610a94838383611e84565b6060816301ffc9a660e01b806001600160e01b031916601283604051610c7e9190612c5e565b908152604051908190036020019020546001600160e01b0319600160a01b90910460e01b1614610cc05760405162461bcd60e51b815260040161080c90612ff5565b601284604051610cd09190612c5e565b90815260405190819003602001812054630178fe3f60e01b82526001600160a01b031690630178fe3f90610d08908890600401612d14565b60006040518083038186803b158015610d2057600080fd5b505afa158015610d34573d6000803e3d6000fd5b505050506040513d6000823e601f3d908101601f19168201604052610d5c91908101906129d5565b95945050505050565b610d6d611d34565b6001600160a01b0316610d7e611596565b6001600160a01b031614610da45760405162461bcd60e51b815260040161080c906132cf565b6001600160e01b0319831660009081526013602052604090205460ff16610ddd5760405162461bcd60e51b815260040161080c90612fc6565b6040516301ffc9a760e01b81526001600160a01b038316906301ffc9a790610e09908690600401612d4e565b60206040518083038186803b158015610e2157600080fd5b505afa158015610e35573d6000803e3d6000fd5b505050506040513d601f19601f82011682018060405250810190610e59919061283d565b610e755760405162461bcd60e51b815260040161080c90612db5565b82601282604051610e869190612c5e565b908152602001604051809103902060000160146101000a81548163ffffffff021916908360e01c021790555081601282604051610ec39190612c5e565b90815260405190819003602001812080546001600160a01b03939093166001600160a01b0319909316929092179091557fed191672d914fd4c7315cd8610c6a1ef2f19fca4fae39377968c17dd31ee942a908290601290610f25908390612c5e565b908152604051908190036020018120610f3e9291612d76565b60405180910390a1505050565b6008546001600160a01b031690565b600f546040516303578d2960e21b8152839183916001600160a01b0390911690630d5e34a490610f909085908590600401612cf0565b60206040518083038186803b158015610fa857600080fd5b505afa158015610fbc573d6000803e3d6000fd5b505050506040513d601f19601f82011682018060405250810190610fe0919061283d565b15156001146110015760405162461bcd60e51b815260040161080c90612f93565b600034116110215760405162461bcd60e51b815260040161080c90612ef4565b61102b8484611f9f565b50505050565b610a9483838360405180602001604052806000815250611852565b611054611d34565b6001600160a01b0316611065611596565b6001600160a01b03161461108b5760405162461bcd60e51b815260040161080c906132cf565b600160118260405161109d9190612c5e565b908152604051908190036020018120805492151560ff19909316929092179091557f0ee953d1e47780ff965cc98c8abb0e3182736081fed7d2d055d4757a66fc3ef9906110eb908390612d63565b60405180910390a150565b60145490565b600f546040516303578d2960e21b8152859185916001600160a01b0390911690630d5e34a4906111329085908590600401612cf0565b60206040518083038186803b15801561114a57600080fd5b505afa15801561115e573d6000803e3d6000fd5b505050506040513d601f19601f82011682018060405250810190611182919061283d565b15156001146111a35760405162461bcd60e51b815260040161080c90612f93565b600034116111c35760405162461bcd60e51b815260040161080c90612ef4565b6111cd8686611f9f565b6108828585858080601f016020809104026020016040519081016040528093929190818152602001838380828437600092019190915250611e4092505050565b83838080601f0160208091040260200160405190810160405280939291908181526020018383808284376000920191909152505060405163330f940b60e11b925082915060129061125f908590612c5e565b908152604051908190036020019020546001600160e01b0319600160a01b90910460e01b16146112a15760405162461bcd60e51b815260040161080c90612ff5565b86336112ad8183611dc3565b6112c95760405162461bcd60e51b815260040161080c906133dd565b601288886040516112db929190612c4e565b90815260405190819003602001812054630c2b16d760e11b82526001600160a01b0316906318562dae90611317908c908a908a90600401612d34565b600060405180830381600087803b15801561133157600080fd5b505af1158015611345573d6000803e3d6000fd5b50505050505050505050505050565b61135c611d34565b6001600160a01b031661136d611596565b6001600160a01b0316146113935760405162461bcd60e51b815260040161080c906132cf565b600e80546001600160a01b0319166001600160a01b0383161790556040517fcf326d247ceccf2f5ab5e1088e66f8585d355c833cfb3452f54cd93aec3b7a4a906110eb908390612ca9565b6113e6611d34565b6001600160a01b03166113f7611596565b6001600160a01b03161461141d5760405162461bcd60e51b815260040161080c906132cf565b610a94601583836124b5565b6000818152600360205260408120546001600160a01b0316806107885760405162461bcd60e51b815260040161080c90613166565b6000600d5482106114815760405162461bcd60e51b815260040161080c90612df9565b600c82815481106114a257634e487b7160e01b600052603260045260246000fd5b90600052602060002001549050919050565b60006001600160a01b0382166114dc5760405162461bcd60e51b815260040161080c9061311c565b506001600160a01b031660009081526004602052604090205490565b611500611d34565b6001600160a01b0316611511611596565b6001600160a01b0316146115375760405162461bcd60e51b815260040161080c906132cf565b6115416000611ff2565b565b61154b611d34565b6001600160a01b031661155c611596565b6001600160a01b0316146115825760405162461bcd60e51b815260040161080c906132cf565b611590816305f5e100613538565b600b5550565b6000546001600160a01b031690565b600080600080600080600a60009054906101000a90046001600160a01b03166001600160a01b031663feaf968c6040518163ffffffff1660e01b815260040160a06040518083038186803b1580156115fc57600080fd5b505afa158015611610573d6000803e3d6000fd5b505050506040513d601f19601f820116820180604052508101906116349190612ba9565b50919850505050505050505090565b60606002805461093b906135fe565b61166461165d611d34565b8383612042565b5050565b600d5481565b611676611d34565b6001600160a01b0316611687611596565b6001600160a01b0316146116ad5760405162461bcd60e51b815260040161080c906132cf565b600954601454604051635b0fc9c360e01b81526001600160a01b0390921691635b0fc9c3916116e0918590600401612d1d565b600060405180830381600087803b1580156116fa57600080fd5b505af1158015610c0a573d6000803e3d6000fd5b82828080601f01602080910402602001604051908101604052809392919081815260200183838082843760009201919091525050604051632421c19b60e01b9250829150601290611760908590612c5e565b908152604051908190036020019020546001600160e01b0319600160a01b90910460e01b16146117a25760405162461bcd60e51b815260040161080c90612ff5565b85336117ae8183611dc3565b6117ca5760405162461bcd60e51b815260040161080c906133dd565b601287876040516117dc929190612c4e565b90815260405190819003602001812054634848b1a560e01b82526001600160a01b031690634848b1a590611816908b9089906004016134ae565b600060405180830381600087803b15801561183057600080fd5b505af1158015611844573d6000803e3d6000fd5b505050505050505050505050565b61186361185d611d34565b83611dc3565b61187f5760405162461bcd60e51b815260040161080c9061340d565b61102b848484846120e5565b611893611d34565b6001600160a01b03166118a4611596565b6001600160a01b0316146118ca5760405162461bcd60e51b815260040161080c906132cf565b600f80546001600160a01b0319166001600160a01b0392909216919091179055565b60606118f782611d38565b6119135760405162461bcd60e51b815260040161080c90613232565b6000828152600760205260408120805461192c906135fe565b80601f0160208091040260200160405190810160405280929190818152602001828054611958906135fe565b80156119a55780601f1061197a576101008083540402835291602001916119a5565b820191906000526020600020905b81548152906001019060200180831161198857829003601f168201915b5050505050905060006119b6612118565b90508051600014156119ca5750905061078b565b8151156119fc5780826040516020016119e4929190612c7a565b6040516020818303038152906040529250505061078b565b611a058461212a565b949350505050565b600b5481565b6000816301ffc9a760e01b806001600160e01b031916601283604051611a399190612c5e565b908152604051908190036020019020546001600160e01b0319600160a01b90910460e01b1614611a7b5760405162461bcd60e51b815260040161080c90612ff5565b6000601285604051611a8d9190612c5e565b90815260405190819003602001812054630178fe3f60e01b82526001600160a01b031691508190630178fe3f90611ac8908990600401612d14565b60206040518083038186803b158015611ae057600080fd5b505afa158015611af4573d6000803e3d6000fd5b505050506040513d601f19601f82011682018060405250810190611b189190612a3e565b9695505050505050565b600f546001600160a01b031690565b606081601181604051611b449190612c5e565b9081526040519081900360200190205460ff16151560011415611b795760405162461bcd60e51b815260040161080c9061345e565b601083604051611b899190612c5e565b90815260200160405180910390208054611ba2906135fe565b80601f0160208091040260200160405190810160405280929190818152602001828054611bce906135fe565b8015611c1b5780601f10611bf057610100808354040283529160200191611c1b565b820191906000526020600020905b815481529060010190602001808311611bfe57829003601f168201915b505050505091505b50919050565b611c31611d34565b6001600160a01b0316611c42611596565b6001600160a01b031614611c685760405162461bcd60e51b815260040161080c906132cf565b601455565b600e546001600160a01b031690565b6001600160a01b03918216600090815260066020908152604080832093909416825291909152205460ff1690565b611cb2611d34565b6001600160a01b0316611cc3611596565b6001600160a01b031614611ce95760405162461bcd60e51b815260040161080c906132cf565b6001600160a01b038116611d0f5760405162461bcd60e51b815260040161080c90612e78565b611d1881611ff2565b50565b6001600160e01b031981166301ffc9a760e01b14919050565b3390565b6000908152600360205260409020546001600160a01b0316151590565b600081815260056020526040902080546001600160a01b0319166001600160a01b0384169081179091558190611d8a82611429565b6001600160a01b03167f8c5be1e5ebec7d5bd14f71427d1e84f3dd0314c0f7b2291e5b200ac8c7c3b92560405160405180910390a45050565b6000611dce82611d38565b611dea5760405162461bcd60e51b815260040161080c90613078565b6000611df583611429565b9050806001600160a01b0316846001600160a01b03161480611e305750836001600160a01b0316611e25846109be565b6001600160a01b0316145b80611a055750611a058185611c7c565b611e4982611d38565b611e655760405162461bcd60e51b815260040161080c906131af565b60008281526007602090815260409091208251610a9492840190612539565b826001600160a01b0316611e9782611429565b6001600160a01b031614611ebd5760405162461bcd60e51b815260040161080c90613304565b6001600160a01b038216611ee35760405162461bcd60e51b815260040161080c90612f1c565b611eee838383610a94565b611ef9600082611d55565b6001600160a01b0383166000908152600460205260408120805460019290611f229084906135bb565b90915550506001600160a01b0382166000908152600460205260408120805460019290611f5090849061350c565b909155505060008181526003602052604080822080546001600160a01b0319166001600160a01b0386811691821790925591518493918716916000805160206136de83398151915291a4505050565b611fa982826121ad565b600c8054600181810183556000929092527fdf6966c971051c3d54ec59162606531493a51404a002842f56009d7e5cf4a8c701829055600d54611feb9161350c565b600d555050565b600080546001600160a01b038381166001600160a01b0319831681178455604051919092169283917f8be0079c531659141344cd1fd0a4f28419497f9722a3daafe3b4186f6b6457e09190a35050565b816001600160a01b0316836001600160a01b031614156120745760405162461bcd60e51b815260040161080c90612f60565b6001600160a01b0383811660008181526006602090815260408083209487168084529490915290819020805460ff1916851515179055517f17307eab39ab6107e8899845ad3d59bd9653f200f220920489ca2b5937696c31906120d8908590612d09565b60405180910390a3505050565b6120f0848484611e84565b6120fc8484848461227a565b61102b5760405162461bcd60e51b815260040161080c90612e26565b60408051602081019091526000815290565b606061213582611d38565b6121515760405162461bcd60e51b815260040161080c9061334d565b600061215b612118565b9050600081511161217b57604051806020016040528060008152506121a6565b8061218584612395565b604051602001612196929190612c7a565b6040516020818303038152906040525b9392505050565b6001600160a01b0382166121d35760405162461bcd60e51b815260040161080c906131fd565b6121dc81611d38565b156121f95760405162461bcd60e51b815260040161080c90612ebe565b61220560008383610a94565b6001600160a01b038216600090815260046020526040812080546001929061222e90849061350c565b909155505060008181526003602052604080822080546001600160a01b0319166001600160a01b03861690811790915590518392906000805160206136de833981519152908290a45050565b600061228e846001600160a01b03166124af565b1561238a57836001600160a01b031663150b7a026122aa611d34565b8786866040518563ffffffff1660e01b81526004016122cc9493929190612cbd565b602060405180830381600087803b1580156122e657600080fd5b505af1925050508015612316575060408051601f3d908101601f191682019092526123139181019061288d565b60015b612370573d808015612344576040519150601f19603f3d011682016040523d82523d6000602084013e612349565b606091505b5080516123685760405162461bcd60e51b815260040161080c90612e26565b805181602001fd5b6001600160e01b031916630a85bd0160e11b149050611a05565b506001949350505050565b6060816123ba57506040805180820190915260018152600360fc1b602082015261078b565b8160005b81156123e457806123ce81613633565b91506123dd9050600a83613524565b91506123be565b6000816001600160401b0381111561240c57634e487b7160e01b600052604160045260246000fd5b6040519080825280601f01601f191660200182016040528015612436576020820181803683370190505b5090505b8415611a055761244b6001836135bb565b9150612458600a8661364e565b61246390603061350c565b60f81b81838151811061248657634e487b7160e01b600052603260045260246000fd5b60200101906001600160f81b031916908160001a9053506124a8600a86613524565b945061243a565b3b151590565b8280546124c1906135fe565b90600052602060002090601f0160209004810192826124e35760008555612529565b82601f106124fc5782800160ff19823516178555612529565b82800160010185558215612529579182015b8281111561252957823582559160200191906001019061250e565b506125359291506125ad565b5090565b828054612545906135fe565b90600052602060002090601f0160209004810192826125675760008555612529565b82601f1061258057805160ff1916838001178555612529565b82800160010185558215612529579182015b82811115612529578251825591602001919060010190612592565b5b8082111561253557600081556001016125ae565b60006125d56125d0846134e5565b6134bc565b90508281528383830111156125e957600080fd5b828260208301376000602084830101529392505050565b60008083601f840112612611578182fd5b5081356001600160401b03811115612627578182fd5b60208301915083602082850101111561263f57600080fd5b9250929050565b600082601f830112612656578081fd5b6121a6838335602085016125c2565b80516001600160501b038116811461078b57600080fd5b60006020828403121561268d578081fd5b81356121a6816136a4565b600080604083850312156126aa578081fd5b82356126b5816136a4565b915060208301356126c5816136a4565b809150509250929050565b6000806000606084860312156126e4578081fd5b83356126ef816136a4565b925060208401356126ff816136a4565b929592945050506040919091013590565b60008060008060808587031215612725578081fd5b8435612730816136a4565b93506020850135612740816136a4565b92506040850135915060608501356001600160401b03811115612761578182fd5b8501601f81018713612771578182fd5b612780878235602084016125c2565b91505092959194509250565b6000806040838503121561279e578182fd5b82356127a9816136a4565b915060208301356126c5816136b9565b600080604083850312156127cb578182fd5b82356127d6816136a4565b946020939093013593505050565b600080600080606085870312156127f9578182fd5b8435612804816136a4565b93506020850135925060408501356001600160401b03811115612825578283fd5b61283187828801612600565b95989497509550505050565b60006020828403121561284e578081fd5b81516121a6816136b9565b60006020828403121561286a578081fd5b5035919050565b600060208284031215612882578081fd5b81356121a6816136c7565b60006020828403121561289e578081fd5b81516121a6816136c7565b6000806000606084860312156128bd578081fd5b83356128c8816136c7565b925060208401356128d8816136a4565b915060408401356001600160401b038111156128f2578182fd5b6128fe86828701612646565b9150509250925092565b6000806020838503121561291a578182fd5b82356001600160401b0381111561292f578283fd5b61293b85828601612600565b90969095509350505050565b6000806000806040858703121561295c578182fd5b84356001600160401b0380821115612972578384fd5b61297e88838901612600565b90965094506020870135915080821115612996578384fd5b5061283187828801612600565b6000602082840312156129b4578081fd5b81356001600160401b038111156129c9578182fd5b611a0584828501612646565b6000602082840312156129e6578081fd5b81516001600160401b038111156129fb578182fd5b8201601f81018413612a0b578182fd5b8051612a196125d0826134e5565b818152856020838501011115612a2d578384fd5b610d5c8260208301602086016135d2565b600060208284031215612a4f578081fd5b5051919050565b600080600060408486031215612a6a578081fd5b8335925060208401356001600160401b03811115612a86578182fd5b612a9286828701612600565b9497909650939450505050565b600080600080600060608688031215612ab6578283fd5b8535945060208601356001600160401b0380821115612ad3578485fd5b612adf89838a01612600565b90965094506040880135915080821115612af7578283fd5b50612b0488828901612600565b969995985093965092949392505050565b60008060008060608587031215612b2a578182fd5b8435935060208501356001600160401b03811115612b46578283fd5b612b5287828801612600565b9598909750949560400135949350505050565b60008060408385031215612b77578182fd5b8235915060208301356001600160401b03811115612b93578182fd5b612b9f85828601612646565b9150509250929050565b600080600080600060a08688031215612bc0578283fd5b612bc986612665565b9450602086015193506040860151925060608601519150612bec60808701612665565b90509295509295909350565b60008284528282602086013780602084860101526020601f19601f85011685010190509392505050565b60008151808452612c3a8160208601602086016135d2565b601f01601f19169290920160200192915050565b6000828483379101908152919050565b60008251612c708184602087016135d2565b9190910192915050565b60008351612c8c8184602088016135d2565b835190830190612ca08183602088016135d2565b01949350505050565b6001600160a01b0391909116815260200190565b6001600160a01b0385811682528416602082015260408101839052608060608201819052600090611b1890830184612c22565b6001600160a01b03929092168252602082015260400190565b901515815260200190565b90815260200190565b9182526001600160a01b0316602082015260400190565b600084825260406020830152610d5c604083018486612bf8565b6001600160e01b031991909116815260200190565b6000602082526121a66020830184612c22565b600060608252612d896060830185612c22565b92546001600160a01b0381166020840152604090811b6001600160e01b03191692019190915250919050565b60208082526024908201527f53434164647265737320646f65736e7420737570706f7274205343496e7465726040820152636661636560e01b606082015260800190565b602080825260139082015272151bdad95b88191bd95cdb89dd08195e1a5cdd606a1b604082015260600190565b60208082526032908201527f4552433732313a207472616e7366657220746f206e6f6e20455243373231526560408201527131b2b4bb32b91034b6b83632b6b2b73a32b960711b606082015260800190565b60208082526026908201527f4f776e61626c653a206e6577206f776e657220697320746865207a65726f206160408201526564647265737360d01b606082015260800190565b6020808252601c908201527b115490cdcc8c4e881d1bdad95b88185b1c9958591e481b5a5b9d195960221b604082015260600190565b6020808252600e908201526d0aecad240c8dedce840dac2e8c6d60931b604082015260600190565b60208082526024908201527f4552433732313a207472616e7366657220746f20746865207a65726f206164646040820152637265737360e01b606082015260800190565b60208082526019908201527822a9219b99189d1030b8383937bb32903a379031b0b63632b960391b604082015260600190565b60208082526019908201527815d391950e88135a5b9d1a5b99c81b9bdd08185b1b1bddd959603a1b604082015260600190565b60208082526015908201527414d0d25b9d195c999858d9481b9bdd081d985b1a59605a1b604082015260600190565b6020808252605e908201527f574e46543a20546f6b656e206d65746164617461206669656c6420646f656e7460408201527f206e6f7420657869737473206f7220696e7465726661636520646f65736e277460608201527f20657175616c207468652066756e6374696f6e206265696e6720757365640000608082015260a00190565b6020808252602c908201527f4552433732313a206f70657261746f7220717565727920666f72206e6f6e657860408201526b34b9ba32b73a103a37b5b2b760a11b606082015260800190565b60208082526038908201527f4552433732313a20617070726f76652063616c6c6572206973206e6f74206f776040820152771b995c881b9bdc88185c1c1c9bdd995908199bdc88185b1b60421b606082015260800190565b6020808252602a908201527f4552433732313a2062616c616e636520717565727920666f7220746865207a65604082015269726f206164647265737360b01b606082015260800190565b60208082526029908201527f4552433732313a206f776e657220717565727920666f72206e6f6e657869737460408201526832b73a103a37b5b2b760b91b606082015260800190565b6020808252602e908201527f45524337323155524953746f726167653a2055524920736574206f66206e6f6e60408201526d32bc34b9ba32b73a103a37b5b2b760911b606082015260800190565b6020808252818101527f4552433732313a206d696e7420746f20746865207a65726f2061646472657373604082015260600190565b60208082526031908201527f45524337323155524953746f726167653a2055524920717565727920666f72206040820152703737b732bc34b9ba32b73a103a37b5b2b760791b606082015260800190565b6020808252602c908201527f4552433732313a20617070726f76656420717565727920666f72206e6f6e657860408201526b34b9ba32b73a103a37b5b2b760a11b606082015260800190565b6020808252818101527f4f776e61626c653a2063616c6c6572206973206e6f7420746865206f776e6572604082015260600190565b60208082526029908201527f4552433732313a207472616e73666572206f6620746f6b656e2074686174206960408201526839903737ba1037bbb760b91b606082015260800190565b6020808252602f908201527f4552433732314d657461646174613a2055524920717565727920666f72206e6f60408201526e3732bc34b9ba32b73a103a37b5b2b760891b606082015260800190565b60208082526021908201527f4552433732313a20617070726f76616c20746f2063757272656e74206f776e656040820152603960f91b606082015260800190565b602080825260169082015275574e46543a20546f6b656e206f776e6572206f6e6c7960501b604082015260600190565b60208082526031908201527f4552433732313a207472616e736665722063616c6c6572206973206e6f74206f6040820152701ddb995c881b9bdc88185c1c1c9bdd9959607a1b606082015260800190565b60208082526030908201527f574e46543a20436f6c6c656374696f6e206d65746164617461206669656c642060408201526f646f656e74206e6f742065786973747360801b606082015260800190565b918252602082015260400190565b6040518181016001600160401b03811182821017156134dd576134dd61368e565b604052919050565b60006001600160401b038211156134fe576134fe61368e565b50601f01601f191660200190565b6000821982111561351f5761351f613662565b500190565b60008261353357613533613678565b500490565b60006001600160ff1b038184138284138082168684048611161561355e5761355e613662565b600160ff1b8487128281168783058912161561357c5761357c613662565b85871292508782058712848416161561359757613597613662565b878505871281841616156135ad576135ad613662565b505050929093029392505050565b6000828210156135cd576135cd613662565b500390565b60005b838110156135ed5781810151838201526020016135d5565b8381111561102b5750506000910152565b60028104600182168061361257607f821691505b60208210811415611c2357634e487b7160e01b600052602260045260246000fd5b600060001982141561364757613647613662565b5060010190565b60008261365d5761365d613678565b500690565b634e487b7160e01b600052601160045260246000fd5b634e487b7160e01b600052601260045260246000fd5b634e487b7160e01b600052604160045260246000fd5b6001600160a01b0381168114611d1857600080fd5b8015158114611d1857600080fd5b6001600160e01b031981168114611d1857600080fdfeddf252ad1be2c89b69c2b068fc378daa952ba7f163c4a11628f55a4df523b3efa2646970667358221220e0beb6c52cd3efa1eb3e7e06ea642b218c5393b3efa5c1d1c5383e478a578c4a64736f6c63430008000033",
  "linkReferences": {},
  "deployedLinkReferences": {}
}